:1000000071C000008EC000008CC000008AC00000DB
:1000100088C0000086C0000084C0000082C00000CC
:1000200080C000007EC000007CC000007AC00000DC
:1000300078C0000076C0000074C0000072C00000EC
:1000400070C000006EC000006CC000006AC00000FC
:1000500068C00000CBC0000064C0000062C00000A7
:1000600060C000005EC000004CC100005AC000002B
:1000700058C00000CAC0000054C0000052C00000B8
:1000800050C000004EC000004CC000004AC000003C
:1000900048C0000046C0000044C0000042C000004C
:1000A00040C000003EC000003CC000003AC000005C
:1000B00038C0000036C0000034C0000032C000006C
:1000C00030C000002EC000002CC000002AC000007C
:1000D00028C0000026C0000024C0000022C000008C
:1000E00020C0000011241FBECFEFD1E2DEBFCDBF84
:1000F00000E00CBF12E0A0E0B2E0EAEAF9E000E0C4
:100100000BBF02C007900D92A231B107D9F722E0D0
:10011000A2E1B2E001C01D92A731B207E1F702D01F
:1001200042C46ECF40E050E060E07BE480E090E0CD
:10013000B3D088E887BDEEE6F0E0808182608083FE
:1001400014BC83E085BDECE7F0E09081907E908365
:1001500090819083908190649083EAE7F0E09081B1
:100160009068908390819860908390819062908352
:1001700080937B007894FFCF0F931F93CF93DF93EF
:10018000CDB7DEB769970FB6F894DEBF0FBECDBF0F
:100190009C01ADECBCEC14D196958795969587950E
:1001A0009F938F939F938F9381E092E09F938F9380
:1001B0008E010F5F1F4F1F930F9333D1C80193D050
:1001C0001092160210921502109214020FB6F894B3
:1001D000DEBF0FBECDBF69960FB6F894DEBF0FBE6F
:1001E000CDBFDF91CF911F910F9108951F920F9274
:1001F0000FB60F9211248F9387B5885787BD8F91C3
:100200000F900FBE0F901F9018951F920F920FB670
:100210000F9211240BB60F922F933F934F935F933E
:100220006F937F938F939F93AF93BF93EF93FF93BE
:1002300080911402853041F480911502909116024C
:100240009BDF1092140215C08091780040917900D4
:10025000209115023091160290E0942B820F931F8B
:100260009093160280931502809114028F5F809301
:100270001402FF91EF91BF91AF919F918F917F9168
:100280006F915F914F913F912F910F900BBE0F9007
:100290000FBE0F901F9018957894DC01CB01880F4A
:1002A000991FAA1FBB1F880F991FAA1FBB1F9C0164
:1002B000AD01220F331F441F551F220F331F441F50
:1002C000551F60E074E284EF90E05ED02150310968
:1002D0003093C5002093C40086E08093C20088E17B
:1002E0008093C100089520910002222349F0909349
:1002F000130280931202E1ECF0E08081806280833F
:1003000008951F920F920FB60F9211240BB60F9201
:100310008F939F93EF93FF93E0911202F09113025A
:100320008081811109C081E080930002E1ECF0E05E
:1003300080818F7D80830EC0109200028081809327
:10034000C6008091120290911302019690931302BD
:1003500080931202E0911202F091130280818111C8
:1003600008C081E080930002E1ECF0E080818F7DA5
:100370008083FF91EF919F918F910F900BBE0F9013
:100380000FBE0F901F901895052E97FB16F4009442
:100390000FD057FD05D023D007FC02D046F408C08B
:1003A00050954095309521953F4F4F4F5F4F0895A1
:1003B00090958095709561957F4F8F4F9F4F0895D1
:1003C000A29FB001B39FC001A39F700D811D112496
:1003D000911DB29F700D811D1124911D0895A1E200
:1003E0001A2EAA1BBB1BFD010DC0AA1FBB1FEE1FAF
:1003F000FF1FA217B307E407F50720F0A21BB30BFA
:10040000E40BF50B661F771F881F991F1A9469F775
:1004100060957095809590959B01AC01BD01CF01D1
:1004200008950F931F93CF93DF93CDB7DEB72E9729
:100430000FB6F894DEBF0FBECDBF0E891F8986E0D0
:100440008C831A8309838FEF9FE79E838D83AE0190
:10045000465E5F4F688D798DCE01019610D0EF8199
:10046000F885E00FF11F10822E960FB6F894DEBFCC
:100470000FBECDBFDF91CF911F910F9108952F92A5
:100480003F924F925F926F927F928F929F92AF9224
:10049000BF92CF92DF92EF92FF920F931F93CF9371
:1004A000DF93CDB7DEB72C970FB6F894DEBF0FBE43
:1004B000CDBF7C016B018A01FC011782168283810A
:1004C00081FFB0C1CE0101964C01F7019381F60185
:1004D00093FD859193FF81916F01882309F49EC15B
:1004E000853239F493FD859193FF81916F018532B7
:1004F00021F4B70190E0C7D1E8CF512C312C20E096
:100500002032A0F48B3269F030F4803259F083321B
:1005100069F420612CC08D3239F0803339F42160C8
:1005200026C02260246023C0286021C027FD27C088
:1005300030ED380F3A3078F426FF06C0FAE05F9EBF
:10054000300D1124532E13C08AE0389E300D112433
:10055000332E20620CC08E3221F426FD5FC1206450
:1005600006C08C3611F4206802C0883641F4F601CA
:1005700093FD859193FF81916F018111C1CF982FD8
:100580009F7D9554933028F40C5F1F4FFFE3F98350
:100590000DC0833631F0833771F0833509F057C0D1
:1005A00021C0F801808189830E5F1F4F442443944A
:1005B000512C540114C03801F2E06F0E711CF80187
:1005C000A080B18026FF03C0652D70E002C06FEFF0
:1005D0007FEFC5012C874CD12C0183012C852F770F
:1005E000222E16C03801F2E06F0E711CF801A080B7
:1005F000B18026FF03C0652D70E002C06FEF7FEF72
:10060000C5012C872AD12C012C852068222E83013C
:1006100023FC19C0832D90E048165906A0F4B701B9
:1006200080E290E030D13A94F5CFF50127FC859136
:1006300027FE81915F01B70190E025D131103A94F6
:10064000F1E04F1A51084114510479F7DEC08436A5
:1006500011F0893631F5F80127FF07C060817181FB
:10066000828193810C5F1F4F08C060817181882750
:1006700077FD8095982F0E5F1F4F2F76B22E97FF34
:1006800009C090958095709561957F4F8F4F9F4FD2
:100690002068B22E2AE030E0A40127D1A82EA818A5
:1006A00043C0853729F42F7EB22E2AE030E025C0E2
:1006B000F22FF97FBF2E8F36C1F018F4883579F00C
:1006C000ADC0803719F0883721F0A8C02F2F2061E6
:1006D000B22EB4FE0DC08B2D8460B82E09C024FF4D
:1006E0000AC09F2F9660B92E06C028E030E005C0F2
:1006F00020E130E002C020E132E0F801B7FE07C09F
:1007000060817181828193810C5F1F4F06C060817F
:10071000718180E090E00E5F1F4FA401E6D0A82E0B
:10072000A818FB2DFF77BF2EB6FE0BC02B2D2E7FFA
:10073000A51450F4B4FE0AC0B2FC08C02B2D2E7EC6
:1007400005C07A2C2B2D03C07A2C01C0752C24FFF8
:100750000DC0FE01EA0DF11D8081803311F4297E68
:1007600009C022FF06C07394739404C0822F867858
:1007700009F0739423FD12C020FF06C05A2C731495
:1007800018F4530C5718732C731460F4B70180E2FB
:1007900090E02C8778D073942C85F6CF731410F4E6
:1007A000371801C0312C24FF11C0B70180E390E05D
:1007B0002C8769D02C8522FF16C021FF03C088E555
:1007C00090E002C088E790E0B7010CC0822F8678E5
:1007D00051F021FD02C080E201C08BE227FD8DE2D5
:1007E000B70190E050D0A51430F4B70180E390E059
:1007F0004AD05A94F8CFAA94F401EA0DF11D8081F1
:10080000B70190E040D0A110F6CF332009F45DCEBF
:10081000B70180E290E037D03A94F7CFF7018681B4
:10082000978102C08FEF9FEF2C960FB6F894DEBF32
:100830000FBECDBFDF91CF911F910F91FF90EF9031
:10084000DF90CF90BF90AF909F908F907F906F90F0
:100850005F904F903F902F900895FC01059061505C
:1008600070400110D8F7809590958E0F9F1F0895C6
:10087000FC016150704001900110D8F7809590956F
:100880008E0F9F1F08950F931F93CF93DF93182F01
:10089000092FEB018B8181FD03C08FEF9FEF20C0FB
:1008A00082FF10C04E815F812C813D81421753072A
:1008B0007CF4E881F9819F012F5F3F4F39832883C2
:1008C000108306C0E885F985812F1995892B29F7B2
:1008D0002E813F812F5F3F4F3F832E83812F902FAB
:1008E000DF91CF911F910F910895FA01AA27283027
:1008F00051F1203181F1E8946F936E7F6E5F7F4FED
:100900008F4F9F4FAF4FB1E03ED0B4E03CD0670F68
:10091000781F891F9A1FA11D680F791F8A1F911DBB
:10092000A11D6A0F711D811D911DA11D20D009F40B
:1009300068943F912AE0269F11243019305D31934D
:10094000DEF6CF010895462F4770405D4193B3E036
:100950000FD0C9F7F6CF462F4F70405D4A3318F0DD
:10096000495D31FD4052419302D0A9F7EACFB4E08E
:10097000A6959795879577956795BA95C9F7009746
:100980006105710508959B01AC010A2E06945795E7
:10099000479537952795BA95C9F7620F731F841F3E
:0A09A000951FA01D0895F894FFCFE5
:1009AA0001256420766F6C747320283078257829A5
:0209BA000A0031
:00000001FF
