S0120000496E74657272757074732E73726563D2
S113000071C000008EC000008CC000008AC00000D7
S113001088C0000086C0000084C0000082C00000C8
S113002080C00000ADC000007CC000007AC00000A9
S113003078C0000076C0000074C0000072C00000E8
S113004070C000006EC000006CC000006AC00000F8
S113005068C0000066C0000064C0000062C0000008
S113006060C000005EC000005CC000005AC0000018
S113007058C0000056C0000054C0000052C0000028
S113008050C000004EC000004CC000004AC0000038
S113009048C0000046C0000044C0000042C0000048
S11300A040C000003EC000003CC000003AC0000058
S11300B038C0000036C0000034C0000032C0000068
S11300C030C000002EC000002CC000002AC0000078
S11300D028C0000026C0000024C0000022C0000088
S11300E020C0000011241FBECFEFD1E2DEBFCDBF80
S11300F000E00CBF12E0A0E0B2E0E0E2F3E000E0D8
S11301000BBF02C007900D92A83DB107D9F722E0BA
S1130110A8EDB2E001C01D92AA3DB207E1F786D076
S1130120FDC06ECFDC01CB01880F991FAA1FBB1F36
S1130130880F991FAA1FBB1F9C01AD01220F331FFB
S1130140441F551F220F331F441F551F60E074E2E4
S113015084EF90E0A5D0215031093093C50020935D
S1130160C40086E08093C20088E18093C1000895B2
S1130170E0ECF0E0908195FFFDCF8093C6000895F8
S11301801F920F920FB60F9211248F939F93809119
S1130190D8029091D90201969093D9028093D80203
S11301A09F918F910F900FBE0F901F9018958633DB
S11301B09105B0F5DC01AA0FBB1FAA0FBB1FA0500D
S11301C0BE4FED91FC91119781E090E012960C9056
S11301D002C0880F991F0A94E2F76130710579F023
S11301E06230710591F0672BF1F491818095982329
S11301F0918392818923828380E090E008959181A4
S1130200892B818380E090E008959181282F2095A7
S1130210922391839281892B828380E090E00895D8
S11302208FEF9FEF089580E090E0089561E070E023
S11302308DE090E0BCDF62E070E085E390E0B7DF42
S113024040E050E060E07BE480E090E06BDFE8E6D3
S1130250F0E0808181608083EBE6F0E08081816062
S1130260808378948091D8029091D902892BD1F31C
S113027082E390E0EFE9FFE03197F1F700C000007E
S113028001970097B9F78091D8029091D902805DC7
S11302906FDF8AE06DDF1092D9021092D802E2CFAC
S11302A0052E97FB16F400940FD057FD05D014D0FB
S11302B007FC02D046F408C050954095309521952E
S11302C03F4F4F4F5F4F089590958095709561957E
S11302D07F4F8F4F9F4F0895A1E21A2EAA1BBB1B7D
S11302E0FD010DC0AA1FBB1FEE1FFF1FA217B307FE
S11302F0E407F50720F0A21BB30BE40BF50B661F14
S1130300771F881F991F1A9469F7609570958095D7
S113031090959B01AC01BD01CF010895F894FFCFE6
S11303202C0000002C0001002C0004002C0005000F
S1130330320005002C00030000010300000104004A
S1130340000105000001060023000400230005004D
S1130350230006002300070003010100030100003D
S1130360000101000001000029000300290002002F
S113037029000100290000002000000020000100E5
S113038020000200200003002000040020000500DB
S113039020000600200007002600070026000600B3
S11303A026000500260004002600030026000200A3
S11303B02600010026000000290007003200020088
S11303C032000100320000000901070009010600A3
S11303D009010500090104000901030009010200E3
S11303E009010100090100002300030023000200A9
S10B03F02300010023000000BA
S9030000FC
