:1000000071C000008EC000008CC000008AC00000DB
:1000100088C0000086C0000084C0000082C00000CC
:1000200080C000007EC000007CC000007AC00000DC
:1000300078C0000076C0000074C0000072C00000EC
:1000400070C000006EC000006CC000006AC00000FC
:1000500068C0000066C0000064C0000062C000000C
:1000600060C000005EC00000A6C000005AC00000D2
:1000700058C0000056C0000054C0000052C000002C
:1000800050C000004EC000004CC000004AC000003C
:1000900048C0000046C0000044C0000042C000004C
:1000A00040C000003EC000003CC000003AC000005C
:1000B00038C0000036C0000034C0000032C000006C
:1000C00030C000002EC000002CC000002AC000007C
:1000D00028C0000026C0000024C0000022C000008C
:1000E00020C0000011241FBECFEFD1E2DEBFCDBF84
:1000F00000E00CBF12E0A0E0B2E0ECEBF2E000E0C8
:100100000BBF02C007900D92AA33B107D9F722E0C6
:10011000AAE3B2E001C01D92AC33B207E1F736D0DA
:10012000CBC06ECFDC01CB01880F991FAA1FBB1F6C
:10013000880F991FAA1FBB1F9C01AD01220F331FFF
:10014000441F551F220F331F441F551F60E074E2E8
:1001500084EF90E073D0215031093093C500209393
:10016000C40086E08093C20088E18093C1000895B6
:1001700020910002222349F090933B0280933A029F
:10018000E1ECF0E08081806280830895789440E023
:1001900050E060E07BE480E090E0C4DF81E092E04A
:1001A000E7DF2FEF83ED90E3215080409040E1F7AF
:1001B00000C00000F3CF1F920F920FB60F921124D0
:1001C0000BB60F928F939F93EF93FF93E0913A02B8
:1001D000F0913B028081811109C081E0809300028F
:1001E000E1ECF0E080818F7D80830EC010920002F0
:1001F00080818093C60080913A0290913B020196E3
:1002000090933B0280933A02E0913A02F0913B02D4
:100210008081811108C081E080930002E1ECF0E070
:1002200080818F7D8083FF91EF919F918F910F90BF
:100230000BBE0F900FBE0F901F901895052E97FBC9
:1002400016F400940FD057FD05D014D007FC02D04F
:1002500046F408C050954095309521953F4F4F4F3B
:100260005F4F089590958095709561957F4F8F4F62
:100270009F4F0895A1E21A2EAA1BBB1BFD010DC0C2
:10028000AA1FBB1FEE1FFF1FA217B307E407F50746
:1002900020F0A21BB30BE40BF50B661F771F881F22
:1002A000991F1A9469F760957095809590959B01B8
:0C02B000AC01BD01CF010895F894FFCF10
:1002BC0001546869732069732061206C6F6E67202C
:1002CC00737472696E672E204675636B697479203E
:1002DC004675636B697479204675636B204675634C
:0A02EC006B204675636B2E0A0000BC
:00000001FF
