:1000000071C0000081C000007FC000007DC0000002
:100010007BC0000079C0000077C0000075C0000000
:1000200073C0000071C000006FC000006DC0000010
:100030006BC0000069C0000067C0000065C0000020
:1000400063C0000061C000005FC000005DC0000030
:100050005BC0000059C0000057C0000055C0000040
:1000600053C00000CBC10000F4C100004DC000002F
:100070004BC0000049C0000047C0000045C0000060
:1000800043C0000041C000003FC000003DC0000070
:100090003BC0000039C0000037C0000035C0000080
:1000A00033C0000031C000002FC000002DC0000090
:1000B0002BC0000029C0000027C0000025C00000A0
:1000C00023C0000021C000001FC000001DC00000B0
:1000D0001BC0000019C0000017C0000015C00000C0
:1000E00013C0000011241FBECFEFD1E2DEBFCDBF91
:1000F00000E00CBF22E0A0E0B2E001C01D92AC3CE9
:10010000B207E1F74FD142C27BCFE82FF0E0DF0129
:10011000AA0FBB1FAA0FBB1FAA0FBB1FA050BE4F29
:1001200016968D919C911797892B21F1FD01808165
:100130009181891303C0938190FD1EC0A681B78170
:10014000A80FB11D6C93848195810196958384835A
:1001500080818F5F928189238083938191FF02C088
:100160009D7F93839181891309C0838181608383FB
:1001700081E008958FEF08958FEF089581E008954D
:10018000E82FF0E0DF01AA0FBB1FAA0FBB1FAA0FC9
:10019000BB1FA050BE4F16968D919C911797892B2F
:1001A00061F1FD0181819081981303C0938191FDDC
:1001B00026C0A681B781A80FB11D8C91DB018C935D
:1001C0008181A681B781A80FB11D1C928481958180
:1001D00001979583848381818F5F928189238183B5
:1001E000938190FF02C09E7F93839081891309C001
:1001F00083818260838381E008958FEF08958FEF7C
:10020000089581E008959C01215031092823392364
:10021000232B09F049C02091060230910702232BBD
:1002200049F0EEE0F2E021E030E040815181452BE1
:10023000A1F502C020E030E0F901EE0FFF1FEE0F44
:10024000FF1FEE0FFF1FE050FE4F77836683108283
:1002500011824FE1428343814260438340E250E098
:100260005583448318161906B4F440E050E0D901D0
:10027000AA0FBB1FAA0FBB1FAA0FBB1FAA5FBD4FB0
:10028000ED91FC911197E40FF51F10824F5F5F4FC6
:1002900048175907A9F7822F08952F5F3F4F3896C7
:1002A0002830310511F602C08FEF08958FEF0895C1
:1002B000AF92BF92CF92DF92EF92FF920F931F9374
:1002C000CF93DF93EC01FC01EE0FFF1FE80FF91F46
:1002D000E054FD4F8081811135C0440F551F661FCA
:1002E000771F440F551F661F771F9A01AB01220F1E
:1002F000331F441F551F220F331F441F551F60E03B
:1003000074E284EF90E004D1215031093093C500AC
:100310002093C40086E08093C20088E18093C100EE
:10032000B601C50170DF9E01220F331FC20FD31F1C
:10033000C054DD4F8983B801C70165DF8A8380E03F
:1003400090E002C08FEF9FEFDF91CF911F910F914F
:10035000FF90EF90DF90CF90BF90AF900895CF9334
:10036000DF931F92CDB7DEB7BE016F5F7F4F8091E5
:10037000C10206DF898190E00F90DF91CF9108954F
:100380008091C202C2DEE1ECF0E080818062808375
:1003900008951092C0021092C3021092C6021092E9
:1003A000C9020895F6DF7894E1ECF0E0808180687E
:1003B00080836894AA24A5F8B12C0F2EF0E4CF2EE8
:1003C000F2E0DF2EF02D6894EE24E5F8F12C00E841
:1003D00012E020E030E040E855E260E070E080E0CC
:1003E00090E066DF66E480E090E0CADF80E090E0C5
:1003F000B6DF682F80E090E0C3DFF4CF1F920F924A
:100400000FB60F9211240BB60F922F933F934F9379
:100410005F936F937F938F939F93AF93BF93EF936C
:10042000FF936091C6008091C1026FDEFF91EF9152
:10043000BF91AF919F918F917F916F915F914F91FC
:100440003F912F910F900BBE0F900FBE0F901F90FA
:1004500018951F920F920FB60F9211240BB60F92A0
:100460002F933F934F935F936F937F938F939F93BC
:10047000AF93BF93EF93FF93CF93DF931F92CDB7CB
:10048000DEB78091C202E82FF0E0EE0FFF1FEE0F03
:10049000FF1FEE0FFF1FE050FE4F24813581232BFD
:1004A00031F4E1ECF0E080818F7D808307C0BE01F4
:1004B0006F5F7F4F65DE89818093C600E091C20245
:1004C000F0E0EE0FFF1FEE0FFF1FEE0FFF1FE050DB
:1004D000FE4F84819581892B29F4E1ECF0E0808145
:1004E0008F7D80830F90DF91CF91FF91EF91BF912E
:1004F000AF919F918F917F916F915F914F913F91BC
:100500002F910F900BBE0F900FBE0F901F9018955C
:10051000052E97FB16F400940FD057FD05D014D08C
:1005200007FC02D046F408C05095409530952195BF
:100530003F4F4F4F5F4F089590958095709561950F
:100540007F4F8F4F9F4F0895A1E21A2EAA1BBB1B0E
:10055000FD010DC0AA1FBB1FEE1FFF1FA217B3078F
:10056000E407F50720F0A21BB30BE40BF50B661FA5
:10057000771F881F991F1A9469F760957095809569
:1005800090959B01AC01BD01CF010895F894FFCF78
:00000001FF
