:1000000071C000008EC000008CC000008AC00000DB
:1000100088C0000086C0000084C0000082C00000CC
:1000200080C000007EC000007CC000007AC00000DC
:1000300078C0000076C0000074C0000072C00000EC
:1000400070C000006EC000006CC000006AC00000FC
:1000500068C0000066C0000064C0000062C000000C
:1000600060C000005EC000005CC000005AC000001C
:1000700058C0000056C0000054C0000052C000002C
:1000800050C000004EC000004CC000004AC000003C
:1000900048C0000046C0000044C0000042C000004C
:1000A00040C000003EC000003CC000003AC000005C
:1000B00038C0000036C0000034C0000032C000006C
:1000C00030C000002EC000002CC000002AC000007C
:1000D00028C0000026C0000024C0000022C000008C
:1000E00020C0000011241FBECFEFD1E2DEBFCDBF84
:1000F00000E00CBF12E0A0E0B2E0EEEAF4E000E0C5
:100100000BBF02C007900D92A03EB107D9F722E0C5
:10011000A0EEB2E001C01D92A23EB207E1F72ED1DF
:10012000C4C16ECF86339105B0F5DC01AA0FBB1FA9
:10013000AA0FBB1FA050BE4FED91FC91119781E01B
:1001400090E012960C9002C0880F991F0A94E2F773
:100150006130710579F06230710591F0672BF1F42F
:10016000918180959823918392818923828380E075
:1001700090E008959181892B818380E090E008953B
:100180009181282F2095922391839281892B8283BC
:1001900080E090E008958FEF9FEF089580E090E079
:1001A0000895880F991F880F991FDC01A050BE4F3A
:1001B000ED91FC911197408121E030E0C901129648
:1001C0000C9002C0880F991F0A94E2F7242F28236D
:1001D000208381E090E0211102C080E090E008954A
:1001E000880F991F880F991FFC01E050FE4FA081D6
:1001F000B18181E090E0028002C0880F991F0A94CB
:10020000E2F76130710539F412969C911297892BAF
:1002100012968C930895672B39F412969C9112973D
:100220008095892312968C9308950F931F93CF93F3
:10023000DF938C01C0E0D0E060E070E0F8018191D4
:1002400091918F01CDDF2196C430D105A9F7DF91BF
:10025000CF911F910F910895EF92FF920F931F93EB
:10026000CF93DF93E82EF92EE0DF0E2D1F2DC4E093
:10027000D0E061E070E0F801819191918F01B0DFF1
:1002800021972097B1F7FFE926E881E0F15020405F
:100290008040E1F700C000000E2D1F2DC0E0D0E02F
:1002A00060E070E0F801819191918F0199DF2196D2
:1002B000C430D105A9F7FFE926E881E0F1502040DC
:1002C0008040E1F700C00000DF91CF911F910F91B6
:1002D000FF90EF900895EF92FF920F931F93CF93AB
:1002E000DF93082F192FA1DFC02FD12F00E010E0DE
:1002F0007E0161E070E08991999172DF2FE986E8D3
:1003000091E0215080409040E1F700C0000060E0A3
:1003100070E0F7018081918163DF0F5F1F4F043030
:10032000110531F7DF91CF911F910F91FF90EF9061
:1003300008950F931F93CF93DF93EC0188819981E8
:1003400030DF892B49F08E010E5F1F4F8A819B8120
:1003500028DF892B61F401C08E01F8018081918131
:1003600020DF892BD1F3F8018081918102C080E0E8
:1003700090E0DF91CF911F910F910895CF93DF937C
:10038000CDB7DEB72C970FB6F894DEBF0FBECDBF4A
:1003900088E0E8EDF2E0DE01119601900D928A9579
:1003A000E1F789E090E09A87898788E090E09C8770
:1003B0008B871092E1021092E0028E010F5F1F4FB7
:1003C0007E0189E0E80EF11C61E070E0F8018191A6
:1003D00091918F01A7DE0E151F05B1F762E070E065
:1003E00089859A859FDE62E070E08B859C859ADE28
:1003F000CE0109966C01A82EBD2C01E010E0689496
:10040000EE24E1F8F12C10C0C60193DF883091058D
:1004100039F0099749F41093E1020093E00204C017
:10042000F092E102E092E0028091E0029091E1021C
:10043000892B51F316C06A2D7B2DCE0101960CDF5E
:100440008A2D9B2D76DF8830910539F0099749F484
:100450001092E1021092E00204C0F092E102E092F8
:10046000E0022091E0023091E1022130310519F3E0
:1004700014C0CE0101962FDF8A2D9B2D5ADF8830C4
:10048000910539F0099749F41093E1020093E002D5
:1004900004C01092E1021092E0022091E00230913B
:0E04A000E1022230310529F3BFCFF894FFCFDF
:1004AE002C0000002C0001002C0004002C00050084
:1004BE00320005002C0003000001030000010400BF
:1004CE0000010500000106002300040023000500C2
:1004DE0023000600230007000301010003010000B2
:1004EE0000010100000100002900030029000200A4
:1004FE00290001002900000020000000200001005A
:10050E00200002002000030020000400200005004F
:10051E002000060020000700260007002600060027
:10052E002600050026000400260003002600020017
:10053E0026000100260000002900070032000200FC
:10054E003200010032000000090107000901060017
:10055E000901050009010400090103000901020057
:10056E00090101000901000023000300230002001D
:10057E0023000100230000000D000C000B000A00F8
:00000001FF
