:1000000071C000008EC000008CC000008AC00000DB
:1000100088C0000086C0000084C0000082C00000CC
:1000200080C000007EC000007CC000007AC00000DC
:1000300078C0000076C0000074C0000072C00000EC
:1000400070C000006EC000006CC000006AC00000FC
:1000500068C0000066C0000064C0000062C000000C
:1000600060C0000072C000000DC100005AC0000056
:1000700058C0000056C0000054C0000052C000002C
:1000800050C000004EC000004CC000004AC000003C
:1000900048C0000046C0000044C0000042C000004C
:1000A00040C000003EC000003CC000003AC000005C
:1000B00038C0000036C0000034C0000032C000006C
:1000C00030C000002EC000002CC000002AC000007C
:1000D00028C0000026C0000024C0000022C000008C
:1000E00020C0000011241FBECFEFD1E2DEBFCDBF84
:1000F00000E00CBF12E0A0E0B2E0EAE8F3E000E0CC
:100100000BBF02C007900D92A230B107D9F722E0D1
:10011000A2E0B2E001C01D92A732B207E1F79DD084
:1001200032C16ECF909306028093050210920402B2
:10013000E1ECF0E020812068208320812223ECF391
:10014000909306028093050208951F920F920FB6B6
:100150000F9211240BB60F928F939F93EF93FF93FF
:10016000809104028F3158F0E0910502F09106026F
:100170001082E1ECF0E080818F77808321C0E091F4
:100180000502F09106028091C600808380818A304A
:1001900069F4CF01019690930602809305021182C3
:1001A000E1ECF0E080818F7780830AC03196F09394
:1001B0000602E0930502809104028F5F809304029F
:1001C000809104028F3150F0E0910502F091060217
:1001D0001082E1ECF0E080818F778083FF91EF91D6
:1001E0009F918F910F900BBE0F900FBE0F901F909D
:1001F0001895DC01CB01880F991FAA1FBB1F880F20
:10020000991FAA1FBB1F9C01AD01220F331F441F62
:10021000551F220F331F441F551F60E074E284EF07
:1002200090E073D0215031093093C5002093C40071
:1002300086E08093C20088E18093C10008952091F8
:100240000002222349F09093030280930202E1EC22
:10025000F0E08081806280830895789440E050E0EF
:1002600060E07BE480E090E0C4DFC1ECD0E060E0DF
:1002700087E092E057DF87E092E0E1DF888185FF49
:10028000FDCFF5CF1F920F920FB60F9211240BB630
:100290000F928F939F93EF93FF93E0910202F0915F
:1002A00003028081811109C081E080930002E1ECAA
:1002B000F0E080818F7D80830EC0109200028081EB
:1002C0008093C60080910202909103020196909360
:1002D000030280930202E0910202F0910302808106
:1002E000811108C081E080930002E1ECF0E08081A0
:1002F0008F7D8083FF91EF919F918F910F900BBE27
:100300000F900FBE0F901F901895052E97FB16F4B7
:1003100000940FD057FD05D014D007FC02D046F44E
:1003200008C050954095309521953F4F4F4F5F4FF6
:10033000089590958095709561957F4F8F4F9F4F51
:100340000895A1E21A2EAA1BBB1BFD010DC0AA1F16
:10035000BB1FEE1FFF1FA217B307E407F50720F02E
:10036000A21BB30BE40BF50B661F771F881F991FA9
:100370001A9469F760957095809590959B01AC01F2
:0A038000BD01CF010895F894FFCFEE
:02038A00010070
:00000001FF
