S014000054656D7048756D69646974792E737265632D
S113000071C000008EC000008CC000008AC00000D7
S113001088C0000086C0000084C0000082C00000C8
S113002080C000007EC000007CC000007AC00000D8
S113003078C0000076C0000074C0000072C00000E8
S113004070C000006EC000006CC000006AC00000F8
S113005068C0000066C0000064C0000062C0000008
S113006060C000005EC00000FFC100005AC0000074
S113007058C0000056C0000054C0000052C0000028
S113008050C000004EC000004CC000004AC0000038
S113009048C0000046C0000044C0000042C0000048
S11300A040C000003EC000003CC000003AC0000058
S11300B038C0000036C0000034C0000032C0000068
S11300C030C000002EC000002CC000002AC0000078
S11300D028C0000026C0000024C0000022C0000088
S11300E020C0000011241FBECFEFD1E2DEBFCDBF80
S11300F000E00CBF12E0A0E0B2E0E6E2F8E000E0CD
S11301000BBF02C007900D92AA3DB107D9F723E0B7
S1130110AAEDB2E001C01D92A730B207E1F7B3D057
S113012080C36ECF86339105B0F5DC01AA0FBB1FE7
S1130130AA0FBB1FAF5FBD4FED91FC91119781E0FA
S113014090E012960C9002C0880F991F0A94E2F76F
S11301506130710579F06230710591F0672BF1F42B
S1130160918180959823918392818923828380E071
S113017090E008959181892B818380E090E0089537
S11301809181282F2095922391839281892B8283B8
S113019080E090E008958FEF9FEF089580E090E075
S11301A00895880F991F880F991FDC01AF5FBD4F19
S11301B0ED91FC911197408121E030E0C901129644
S11301C00C9002C0880F991F0A94E2F7242F282369
S11301D0208381E090E0211102C080E090E0089546
S11301E0880F991F880F991FFC01EF5FFD4FA081B5
S11301F0B18181E090E0028002C0880F991F0A94C7
S1130200E2F76130710539F412969C911297892BAB
S113021012968C930895672B39F412969C91129739
S11302208095892312968C930895DC01CB01880F65
S1130230991FAA1FBB1F880F991FAA1FBB1F9C01D0
S1130240AD01220F331F441F551F220F331F441FBC
S1130250551F60E074E284EF90E06BD221503109C5
S11302603093C5002093C40086E08093C20088E1E7
S11302708093C1000895E0ECF0E0908195FFFDCFFC
S11302808093C6000895CF93DF93CDB7DEB7EE9782
S11302900FB6F894DEBF0FBECDBF40E050E060E083
S11302A07BE480E090E0C1DF7894CE010B968E0170
S11302B0085C1F4FFC011192E017F107E1F74CEDC8
S11302C052E0BE016F5F7F4F6E0126E0C20ED11C6B
S11302D09A010F2EF1EEEF2EF2E0FF2EF02DFA012F
S11302E01192DB011D92BD01D6011D926D01EE1527
S11302F0FF05B1F77901B8E2EB0EF11C242E58AFDB
S1130300332433945901E0E1AE0EB11C4901F0E20B
S11303108F0E911C8DAF9EAF2FEF43ED60E3215004
S113032040406040E1F700C0000061E070E086E01A
S113033090E0F8DE60E070E086E090E051DF8FE16D
S11303409EE40197F1F700C0000062E070E086E0EF
S113035090E0E8DE86E090E024DF0197D9F3AFE790
S1130360B2E01197F1F700C00000C22CD8AC86E0CF
S113037090E017DF892BD9F3B5EDBA95F1F70000BA
S113038086E090E00EDF019719F4F601308202C096
S1130390D6011C92B0EABA95F1F7EFEFCE1ADE0A55
S11303A0CE14DF0421F7E22DF8AD60E070E0660FB3
S11303B0771F8191682BEA15FB05C9F7ECEEF2E093
S11303C0C12CD12CCC0CDD1C8191C82AE815F9056F
S11303D0C9F7882777FD8095982FBCD02DEC3CEC8D
S11303E04CEC5DE31BD12B013C01B601882777FD62
S11303F08095982FAFD02DEC3CEC4CEC5DE30ED106
S113040069AF7AAF8BAF9CAFC301B20170D0DC018E
S1130410CB014AE0BE016F5F7F4FD0D169AD7AADA9
S11304208BAD9CAD64D0DC01CB014AE0BE016A5FB8
S11304307F4FC4D1BE016F5F7F4FCE010B96B7D102
S1130440BE016A5F7F4FCE010B96B1D18AE090E086
S11304509C878B87CDACDEACD6018D916D010BDF13
S1130460C016D106C9F758CF1F920F920FB60F923C
S113047011240BB60F928F939F93EF93FF93E09108
S1130480DA02F091DB028081811109C081E080935E
S11304900002E1ECF0E080818F7D80830EC0109239
S11304A0000280818093C6008091DA029091DB0281
S11304B001969093DB028093DA02E091DA02F091E4
S11304C0DB028081811108C081E080930002E1ECAD
S11304D0F0E080818F7D8083FF91EF919F918F91D8
S11304E00F900BBE0F900FBE0F901F90189504D065
S11304F06894B1118DC0089570D088F09F5790F022
S1130500B92F9927B751A0F0D1F0660F771F881F34
S1130510991F1AF0BA95C9F712C0B13081F077D09B
S1130520B1E0089574C0672F782F8827B85F39F039
S1130530B93FCCF3869577956795B395D9F73EF493
S113054090958095709561957F4F8F4F9F4F08953B
S1130550E89409C097FB3EF4909580957095619559
S11305607F4F8F4F9F4F9923A9F0F92F96E9BB270F
S11305709395F695879577956795B795F111F8CF8B
S1130580FAF4BB0F11F460FF1BC06F5F7F4F8F4FF6
S11305909F4F16C0882311F096E911C0772321F0EC
S11305A09EE8872F762F05C0662371F096E8862F84
S11305B070E060E02AF09A95660F771F881FDAF7DB
S11305C0880F9695879597F9089557FD9058440F8D
S11305D0551F59F05F3F71F04795880F97FB991F9E
S11305E061F09F3F79F0879508951216130614065B
S11305F0551FF2CF4695F1DF08C0161617061806E8
S1130600991FF1CF86957105610508940895E894C2
S1130610BB2766277727CB0197F908950BD078C0BD
S113062069D028F06ED018F0952309F05AC05FC045
S11306301124EECFCADFA0F3959FD1F3950F50E0BC
S1130640551F629FF001729FBB27F00DB11D639F80
S1130650AA27F00DB11DAA1F649F6627B00DA11D26
S1130660661F829F2227B00DA11D621F739FB00DCC
S1130670A11D621F839FA00D611D221F749F33273C
S1130680A00D611D231F849F600D211D822F762FD5
S11306906A2F11249F5750408AF0E1F088234AF0D2
S11306A0EE0FFF1FBB1F661F771F881F915050401E
S11306B0A9F79E3F510570F014C0AACF5F3FECF339
S11306C0983EDCF3869577956795B795F795E7950A
S11306D09F5FC1F7FE2B880F911D9695879597F91B
S11306E0089597F99F6780E870E060E008959FEFB0
S11306F080EC089500240A941616170618060906B5
S1130700089500240A941216130614060506089583
S1130710092E0394000C11F4882352F0BB0F40F40B
S1130720BF2B11F460FF04C06F5F7F4F8F4F9F4F4B
S11307300895052E97FB16F400940FD057FD05D0AD
S113074014D007FC02D046F408C05095409530956B
S113075021953F4F4F4F5F4F089590958095709529
S113076061957F4F8F4F9F4F0895A1E21A2EAA1BC8
S1130770BB1BFD010DC0AA1FBB1FEE1FFF1FA2174D
S1130780B307E407F50720F0A21BB30BE40BF50B4A
S1130790661F771F881F991F1A9469F760957095D3
S11307A0809590959B01AC01BD01CF010895FB019B
S11307B0DC0101900D920020E1F70895BB274A3037
S11307C031F4992322F4BDE2909581959F4F01C0A5
S11307D0BB27FB015527AA27880F991FAA1FA41717
S11307E010F0A41B83955051B9F7A05DAA3308F00B
S11307F0A95DA193009779F7B111B1931192CB013F
S113080000C0DC01FC01672F71917723E1F7329777
S113081004C07C916D9370836291AE17BF07C8F3D7
S10908200895F894FFCFD7
S1130826012C0000002C0001002C0004002C000503
S113083600320005002C000300000103000001043F
S11308460000010500000106002300040023000542
S11308560023000600230007000301010003010032
S11308660000010100000100002900030029000224
S113087600290001002900000020000000200001DA
S113088600200002002000030020000400200005D0
S113089600200006002000070026000700260006A8
S11308A60026000500260004002600030026000298
S11308B6002600010026000000290007003200027D
S11308C60032000100320000000901070009010698
S11308D600090105000901040009010300090102D8
S11308E6000901010009010000230003002300029E
S10D08F600230001002300000000AD
S9030000FC
